{
  "contractName": "Vote",
  "abi": [
    {
      "constant": false,
      "inputs": [
        {
          "name": "voterId",
          "type": "uint256"
        }
      ],
      "name": "vote",
      "outputs": [
        {
          "name": "",
          "type": "uint256"
        }
      ],
      "payable": false,
      "stateMutability": "nonpayable",
      "type": "function"
    },
    {
      "constant": true,
      "inputs": [],
      "name": "getVoters",
      "outputs": [
        {
          "name": "",
          "type": "address[20]"
        }
      ],
      "payable": false,
      "stateMutability": "view",
      "type": "function"
    },
    {
      "constant": true,
      "inputs": [
        {
          "name": "",
          "type": "uint256"
        }
      ],
      "name": "voters",
      "outputs": [
        {
          "name": "",
          "type": "address"
        }
      ],
      "payable": false,
      "stateMutability": "view",
      "type": "function"
    }
  ],
  "bytecode": "0x6060604052341561000f57600080fd5b6102dc8061001e6000396000f300606060405260043610610057576000357c0100000000000000000000000000000000000000000000000000000000900463ffffffff1680630121b93f1461005c578063cdd7225314610093578063da58c7d9146100e4575b600080fd5b341561006757600080fd5b61007d6004808035906020019091905050610147565b6040518082815260200191505060405180910390f35b341561009e57600080fd5b6100a66101bb565b6040518082601460200280838360005b838110156100d15780820151818401526020810190506100b6565b5050505090500191505060405180910390f35b34156100ef57600080fd5b610105600480803590602001909190505061023c565b604051808273ffffffffffffffffffffffffffffffffffffffff1673ffffffffffffffffffffffffffffffffffffffff16815260200191505060405180910390f35b60008082118015610159575060148211155b151561016457600080fd5b3360008360148110151561017457fe5b0160006101000a81548173ffffffffffffffffffffffffffffffffffffffff021916908373ffffffffffffffffffffffffffffffffffffffff160217905550819050919050565b6101c3610271565b6000601480602002604051908101604052809291908260148015610232576020028201915b8160009054906101000a900473ffffffffffffffffffffffffffffffffffffffff1673ffffffffffffffffffffffffffffffffffffffff16815260200190600101908083116101e8575b5050505050905090565b60008160148110151561024b57fe5b016000915054906101000a900473ffffffffffffffffffffffffffffffffffffffff1681565b610280604051908101604052806014905b600073ffffffffffffffffffffffffffffffffffffffff1681526020019060019003908161028257905050905600a165627a7a72305820a8f7ee17b012633b1fb36835ece2fec7e9a509e9e492680f99978a6e018a49630029",
  "source": "pragma solidity ^0.4.17;\n\ncontract Vote {\n    address[20] public voters;\n    function vote(uint voterId) public returns (uint) {\n        require(voterId>0 && voterId<=20);\n        voters[voterId] = msg.sender;\n        return voterId;\n    }\n    function getVoters() public view returns (address[20]) {\n        return voters;\n    }\n}",
  "sourcePath": "/Users/hiaham/Documents/wipcoin/contracts/Vote.sol",
  "compiler": {
    "name": "solc",
    "version": "0.4.18+commit.9cf6e910.Emscripten.clang"
  },
  "schemaVersion": "1.0.1",
  "updatedAt": "2018-01-26T08:35:45.880Z"
}